:1000000041000000000000000000000000000000AF
:1000100000000000000000000000000000000000E0
:1000200000000000000000000000000000000000D0
:1000300000000000000000000000000000000000C0
:1000400000000000000000000000000000000000B0
:1000500000000000000000000000000000000000A0
:100060000000000000000000000000000000000090
:100070000000000000000000000000000000000080
:100080000000000000000000000000000000000070
:100090000000000000000000000000000000000060
:1000A0000000000000000000000000000000000050
:1000B0000000000000000000000000000000000040
:1000C0000000000000000000000000000000000030
:1000D0000000000000000000000000000000000020
:1000E0000000000000000000000000000000000010
:1000F0000000000000000000000000000000000000
:1001000000000000000000000000000000000000EF
:1001100000000000000000000000000000000000DF
:1001200000000000000000000000000000000000CF
:1001300000000000000000000000000000000000BF
:1001400000000000000000000000000000000000AF
:10015000000000000000000000000000000000009F
:10016000000000000000000000000000000000008F
:10017000000000000000000000000000000000007F
:10018000000000000000000000000000000000006F
:10019000000000000000000000000000000000005F
:1001A000000000000000000000000000000000004F
:1001B000000000000000000000000000000000003F
:1001C000000000000000000000000000000000002F
:1001D000000000000000000000000000000000001F
:1001E000000000000000000000000000000000000F
:1001F00000000000000000000000000000000000FF
:100200000204E40200000000000000020000000000
:1002100000000002000000000000000200000000DA
:1002200000000002000000000000000200000000CA
:1002300000000002000000000000000200000000BA
:10024000000000020000000000000002087600002C
:10025000000000020000000000000002000000009A
:10026000000000020000000000000002000000008A
:10027000000000020000000000000002000000007A
:10028000000000020000000000000002000000006A
:10029000000000020000000000000002000000005A
:1002A000000000020000000000000002000000004A
:1002B0000000002218A60218F6220808E6088602A6
:1002C000082251B4D002D0E022F46302FF22CA22F5
:1002D0000470010A2270011A142251B4D083D08212
:1002E000E493FAA3E493A3C082C08322880109C6E1
:1002F000CAC7CA22A90051B4E709870222F9E77ADE
:100300000022F9E7FA09E722F9E60808F741BCF903
:1003100051BCCAF7EA09F741BCF5828A83E07A004A
:1003200022F5828A83E0FAA3E022F5828A83E60836
:1003300008F041BCF5828A83860208E608F0A3EA49
:10034000F041BCCA7003CA41FDCAF5828A83E4FA4F
:100350009322CA7003CA6102CAF5828A83E493FABF
:100360007401932226CA0836CA082256CA0856CAF9
:10037000082246CA0846CA082266CA0866CA08226F
:10038000C3C696CA08C696CA0822C333CA33CA224D
:10039000CAA2E713CA132251D041D08AF030F70421
:1003A00051C941D022C002AC02C0E0F5F086070876
:1003B000E6CFC007C0E0A4F6AEF0D0F0ECA42EFE6D
:1003C000500205F0ADF0D0F0D0E0A42EC618F6ED46
:1003D00035F0FDE4500104FCD0F0EFA42DFAEC352B
:1003E000F0CA2271A541BC8AF0FB86050886040884
:1003F000860708860608C0007810C3EF33FFEE3387
:10040000FEED33FDEC33FC92F0C3ED9BF9EC9AB0BA
:10041000F040040FFCE9FD18E870DFD000ED8CF02F
:1004200018A60218F6EF8E022251DA000051EC6194
:10043000E7912941BC91290808228AF0A2F795E0AA
:10044000FA2271794A24FF95E0F4FA2251ECF58200
:100450008A8351BCCAB58304CAB5820095E0FA22EA
:1004600051ECF5828A8351BCF9EA658330E703E9F0
:100470008007C3E99582EA9583A2E795E0FA22D046
:1004800083D082C0E0C00251BCC082C08322D0832E
:10049000D08251B4D002D0E0C082C0832251B4A92E
:1004A000811919870219E722917F71A5918E71E751
:1004B000080822C0E0C00241BC4A24FFD002D0E0BC
:1004C0005004719781B3715981B3918E918E51D53A
:1004D00051B4914491B904DE51BC719781B3917FBD
:1004E000715981B3C2AF75818078FD75A80002058E
:1004F000583099FDC299F59941BC3098FDC2985188
:10050000B4E5997A002251B4A29895E07A0022517C
:10051000F451F4916091B9051B51EC41BC51F45177
:10052000F4916291B9052951EC41BC51B474FBC3FB
:100530009813FAA2E795E0CA2251B4718A716491C6
:100540008E716481B391FA91FACA6164B14581B345
:1005500002B30545054C02B351DA000791F191FA57
:1005600051B454FC5302FF91B9056F74007A0051E5
:10057000B4716451DA05507164715991B3B12B9122
:100580003A91B9058D51DA003F91F191E4A15851AA
:10059000DA000191F1A14551DA000291F1A1455132
:1005A000DA000D91F151DA000A81F151B451D051C4
:1005B000EC6143917FB1AB91F191CA05B541BC5457
:1005C0000F2490D43440D422B1BF81F151B4719042
:1005D000719071907190B1C8A1C851B4CAB1CCB139
:1005E000CC51DA002081F151DAFFFF51EC51DA00F1
:1005F0000A9129B400F7BA00F451BCB1C88AF030AE
:10060000F7F941BC8AF030F708719B51DA002D915F
:10061000F1B1E7A1E151F4540F53020091B9063A48
:10062000B19F51F4B1DA51F4540F53020051B47137
:100630008A7164B1E1D5E0FB51BC917F51B4540F94
:10064000530200914491B9064FB19F51B4B1DAB150
:10065000ABB1DF91CA063C41BC51B451DA00017123
:100660006451EC611951F4540F53020091B9068A98
:10067000B19F51F4B1DA51F4540F53020051B471E7
:100680008A7164B1E1D5E0FB51BC917F51B4540F44
:10069000530200914491B9069FB19F51B4B1DAD190
:1006A00059B1DF91CA068C41BC917F51DA003C916F
:1006B000F1B12BB1E751DA003E91F1B1E1B12BB4C8
:1006C0000009BA00061581158141BC1491B906F3E1
:1006D00051DA00F9B12B1414917F51B47152CA91BF
:1006E0008E919D51EC917F91B351D551D591CA0610
:1006F000DA51BC51B4918E81B351DA0604C1A951CB
:10070000DA05DAC1A951DA0611C1A978FD2271A56D
:1007100041BC51DA000051EC71E708082251DA00BF
:100720000051EC71E741BC9144616B914461799156
:10073000446172916081449162814491428144D0CC
:1007400083D0824A7003A3A3A3E608860208C0826E
:10075000C0832218A60218F6D002D0E06152917F21
:1007600051B4919D51FD716451B4918E710851EC59
:10077000913A91B9077BF13302077DF13791B907BF
:1007800087918E51BC91B322917F51B4919D71029A
:10079000716451B4918E710F51EC913A91B907A5E2
:1007A000F1330207A7F13791B907B1918E51BC918E
:1007B000B322C2AF22D2AF22F580E6088602082219
:1007C00018A60218F6E5807A0022F5A4E60886024B
:1007D000082218A60218F6E5A47A00225280E6083C
:1007E000860208224280E6088602082251EC91B96E
:1007F00007F7F1E40207FB51C9F1DC22F1C0120353
:100800006B1204441204441202DA000102036B1258
:1008100002C201020408102040801202DA00001215
:10082000051D1202DA000712050F110F12036402F0
:100830000343111A0207E4111A1202C90207DC125B
:1008400002DA001222C0A8C2AF120302D0A822C04E
:10085000A8C2AF2513F513E5123AF512D0A8E608A1
:10086000860208221202DA07D0221202DA00D0220F
:100870001202DA000722C0D0C0E0E5D820E405D09B
:10088000E0D0D03253D8EFE5134512700853DEFEA6
:10089000D0E0D0D03274D025EEF5EE740735FEF5F9
:1008A000FEE513700215121513D0E0D0D03253DEDE
:1008B000FE8A12F513E60886020875D90075D8403D
:1008C00075DE4943E608D2AF221202DA0014221183
:1008D000C90203E3F9E512451370FAE92218A602EA
:1008E00018F6E512451324FF95E0F4FA2211AE0143
:1008F000D425E9F5EAEA35F9F5FAE6088602082290
:1009000075DA4C2218A60218F6A2D895E0FA22C28F
:10091000D82275DA00226280E6088602082211CF0A
:100920001202DA03E811AE11F131001202B43116ED
:1009300031041204B90930310F311231161202DAC2
:10094000000101AE11CF1202DA03E811AE11F1314C
:100950000031041204B90951310F31121202DA00C8
:100960000101AE158115810204B31202F40202F4F2
:10097000316A12044E1204441204B909801202ECC6
:100980000202BC31701202B412038A120364120410
:100990008ECA120364216312047F1202EC12047FD8
:1009A0001202F412047F12044E1204441204B90914
:1009B000BE12048E12048E1202BA12048E22120487
:1009C0008E12038A12048E12036412035212048ED2
:1009D0000202BC12047F12047F1202DA0000120429
:1009E0007F316A1203521204421204B909FD120245
:1009F000BA12048E12048E12048E0202BA12048EEF
:100A00001202DA000112036412048E316A120442E7
:100A10001204B90A1F1202BA1202BA12048E22126A
:100A2000047F12047F1202DA000212036421E12221
:100A30001202DA00031207B81207D21202DA00FC1F
:100A40001203721207CA1202DA00C811ED1202DA9A
:100A500000301207B81202DA0002111A1202DA008C
:100A6000C8311E1202DA006411ED1202DA0002111E
:100A70001A1202DA00C8311E1202DA006411ED12F5
:100A800002DA0002111A1202DA00C8311E1202DA6A
:100A9000006411ED1202DA00201207B81202DA0027
:100AA00002111A1202DA00C8311E1202DA006411B1
:100AB000ED1202DA00281202DA000B120308120B00
:100AC000151202DA006411ED1202DA000E1202DAD7
:100AD000000B120308120B151202DA000A11ED12B4
:100AE00002DA00011202DA000B120308120B1512CF
:100AF00002DA006411ED1202DA00021202DA000BCF
:100B0000120308120B151202DA000A11ED1202DAB2
:100B100000031132221207C01202DA000B12036B1B
:100B20001207B81202DA000B1202FD1202DA00F00C
:100B300012036B1202DA000A1203081207C0120233
:100B4000DA000A1202FD1203721207B81202DA006A
:100B500002111A1202DA00C8311E1202DA000B1258
:100B600002FD1202DA00101203E31202DA000A1286
:100B700003081207C01202DA000B12036B1207B847
:100B80001207C01202DA000A1202FD1203721207E3
:100B9000B81202DA0002111A1202DA00C8311E225B
:100BA0001202DA000311371202DA00101202DA0020
:100BB0000B120308120B151202DA00031132221273
:100BC00002DA000311371202DA00011202DA000B16
:100BD000120308120B151202DA000311321202DAA4
:100BE000006411ED221202DA000C1207CA1207C0CB
:100BF0001202DA00F81203721207B81202DA003099
:100C00001202DA00081203081202DA00101207FCBE
:100C10001202DA000112044212073F020CAB120268
:100C2000DA00081202FD1202DA0001120364120255
:100C3000DA00081203081202DA00201207FC12027E
:100C4000DA000112044212073F020CAB1202DA0072
:100C5000081202FD1202DA00011203641202DA0025
:100C6000081203081202DA00401207FC1202DA002E
:100C70000112044212073F020CAB1202DA00081202
:100C800002FD1202DA00011203641202DA000812F5
:100C900003081202DA00801207FC1202DA000112C5
:100CA000044212073F020CAB020BFB1202DA0008EF
:100CB0001202FD1204F11202DA000D1204F1120206
:100CC000DA000A1204F11202DA000A11ED1207C06A
:100CD0001202DA000B12036B1207B81202DA00FCE0
:100CE0001207CA221202DA000B1202FD1202DA0007
:100CF0001F12046012073F020B151202DA000B12DA
:100D000002FD1202DA000312044212073F020BBF77
:100D10001202DA000B1202FD1202DA000D12044276
:100D200012073F020BE51202DA000B1202FD12025B
:100D3000DA000812073B12073F020D52120BA012F5
:100D400002DA00201202DA000B120308120B15124D
:100D50000BA022120A3012058F1202DA000B1203C6
:100D600008120CE4020D56020D53000000000000B2
:100D70000000000000000000000000000000000073
:100D80000000000000000000000000000000000063
:100D90000000000000000000000000000000000053
:100DA0000000000000000000000000000000000043
:100DB0000000000000000000000000000000000033
:100DC0000000000000000000000000000000000023
:100DD0000000000000000000000000000000000013
:100DE0000000000000000000000000000000000003
:100DF00000000000000000000000000000000000F3
:00000001FF
