:100000000200AC020203000000000002020B00002C
:10001000000000020213000000000002021B0000AA
:10002000000000020223000000000002022B00007A
:10003000000000020233000000000002023B00004A
:10004000000000020243000000000002024B00001A
:10005000000000020253000000000002025B0000EA
:10006000000000020263000000000002026B0000BA
:1000700000000002027300000000003099FDC299E8
:10008000F599223098FDC298E599225389F1438968
:1000900001758C00758A00C28DD28C309805C2988B
:1000A000E59922308D04C28C410080EF53D9BF43C3
:1000B000A41443F1FF75E10175E24075B2C3758E7A
:1000C00000759812758920758D96D28E118B64A556
:1000D000600FB282E4FFFE7D0ADFFEDEFCDDFA8007
:1000E000F1745A117B118B6461600FB282E4FFFEE0
:1000F0007D0ADFFEDEFCDDFA80F1118B646D600F9E
:10010000B282E4FFFE7D0ADFFEDEFCDDFA80F11143
:100110008B6472600FB282E4FFFE7D0ADFFEDEFCBC
:10012000DDFA80F174A5117B1183700FB282E4FFB8
:10013000FE7D0ADFFEDEFCDDFA80F1B43F028004C2
:100140004002743EFF758F0390020075B7A575B726
:10015000F1F005830583DFF3FF745A117B758F017E
:100160009002007E00118375B7A575B7F1F0A31159
:100170008375B7A575B7F1F0A3DEEAEF117BDFE376
:10018000758F001183410000000000000000000096
:10019000000000000000000000000000000000005F
:1001A000000000000000000000000000000000004F
:1001B000000000000000000000000000000000003F
:1001C000000000000000000000000000000000002F
:1001D000000000000000000000000000000000001F
:1001E000000000000000000000000000000000000F
:1001F00000000000000000000000000000000000FF
:00000001FF
