:10000000020094020203000000000002020B000044
:10001000000000020213000000000002021B0000AA
:10002000000000020223000000000002022B00007A
:10003000000000020233000000000002023B00004A
:10004000000000020243000000000002024B00001A
:10005000000000020253000000000002025B0000EA
:100060000000003099FDC299F599223098FDC298A0
:10007000E599225389F1438901758C00758A00C284
:100080008DD28C309805C298E59922308D04C28CAF
:10009000410080EF53D9BF43A41443F1FF75E2033D
:1000A00075E34075B217758E0075981275892075C5
:1000B0008D96D28E117364A5600FB282E4FFFE7D2F
:1000C0000ADFFEDEFCDDFA80F1745A1163117364FD
:1000D00061600FB282E4FFFE7D0ADFFEDEFCDDFA26
:1000E00080F11173646D600FB282E4FFFE7D0ADF60
:1000F000FEDEFCDDFA80F111736472600FB282E4FF
:10010000FFFE7D0ADFFEDEFCDDFA80F174A51163DF
:10011000116B700FB282E4FFFE7D0ADFFEDEFCDDB4
:10012000FA80F1B43F0280044002743EFF758F03F1
:1001300090020075B7A575B7F1F005830583DFF36D
:10014000FF745A1163758F019002007E00116B7568
:10015000B7A575B7F1F0A3116B75B7A575B7F1F039
:10016000A3DEEAEF1163DFE3758F00116B4100003E
:10017000000000000000000000000000000000007F
:10018000000000000000000000000000000000006F
:10019000000000000000000000000000000000005F
:1001A000000000000000000000000000000000004F
:1001B000000000000000000000000000000000003F
:1001C000000000000000000000000000000000002F
:1001D000000000000000000000000000000000001F
:1001E000000000000000000000000000000000000F
:1001F00000000000000000000000000000000000FF
:00000001FF
