:10000000020200020203000000000002020B0000D6
:10001000000000020213000000000002021B0000AA
:10002000000000020223000000000002022B00007A
:10003000000000020233000000000002023B00004A
:10004000000000020243000000000002024B00001A
:10005000000000020253000000000002025B0000EA
:10006000000000020263000000000002026B0000BA
:10007000000000020273000000000002027B00008A
:10008000000000020283000000000002028B00005A
:10009000000000020293000000000002029B00002A
:1000A0000000000202A300000000000202AB0000FA
:1000B0000000000202B300000000000202BB0000CA
:1000C0000000000202C300000000000202CB00009A
:1000D0000000000202D300000000000202DB00006A
:1000E0000000000202E300000000000202EB00003A
:1000F0000000000202F300000000000202FB00000A
:10010000000000020303000000000002030B0000D7
:10011000000000020313000000000002031B0000A7
:10012000000000020323000000000002032B000077
:10013000000000020333000000000002033B000047
:10014000000000020343000000000002034B000017
:10015000000000020353000000000002035B0000E7
:10016000000000020363000000000002036B0000B7
:10017000000000020373000000000002037B000087
:10018000000000020383000000000002038B000057
:10019000000000020393000000000002039B000027
:1001A0000000000203A300000000000203AB0000F7
:1001B0000000000203B300000000000203BB0000C7
:1001C0000000000203C300000000000203CB000097
:1001D0000000000203D300000000000203DB000067
:1001E0000000000203E300000000000203EB000037
:1001F0000000000203F300000000000203FB000007
:100200000204940200000000000000020000000050
:1002100000000002000000000000000200000000DA
:1002200000000002000000000000000200000000CA
:1002300000000002000000000000000200000000BA
:1002400000000002000000000000000200000000AA
:10025000000000020000000000000002000000009A
:100260000000002218A60218F6220808E6088602F6
:1002700008225164D002D0E022F46302FF22CA2295
:100280000470010A2270011A14225164D083D082B2
:10029000E493FAA3E493A3C082C08322880109C631
:1002A000CAC7CA22A9005164E709870222F9E77A7E
:1002B0000022F9E7FA09E722F9E60808F7416CF9A4
:1002C000516CCAF7EA09F7416CF5828A83E07A003B
:1002D00022F5828A83E0FAA3E022F5828A83E60887
:1002E00008F0416CF5828A83860208E608F0A3EAEA
:1002F000F0416CCA7003CA41ADCAF5828A83E4FA40
:100300009322CA7003CA41B2CAF5828A83E493FA7F
:100310007401932226CA0836CA082256CA0856CA49
:10032000082246CA0846CA082266CA0866CA0822BF
:10033000C3C696CA08C696CA0822C333CA33CA229D
:10034000CAA2E713CA1322518041808AF030F70411
:100350005179418022C002AC02C0E0F5F086070866
:10036000E6CFC007C0E0A4F6AEF0D0F0ECA42EFEBD
:10037000500205F0ADF0D0F0D0E0A42EC618F6ED96
:1003800035F0FDE4500104FCD0F0EFA42DFAEC357B
:10039000F0CA227155416C8AF0FB86050886040874
:1003A000860708860608C0007810C3EF33FFEE33D7
:1003B000FEED33FDEC33FC92F0C3ED9BF9EC9AB00B
:1003C000F040040FFCE9FD18E870DFD000ED8C026E
:1003D00018A60218F6EF8E0222518A0000519C6185
:1003E0009771D9416C71D90808228AF0A2F795E07B
:1003F000FA2271294A24FF95E0F4FA22519CF582F1
:100400008A83516CCAB58304CAB5820095E0FA228A
:10041000519CF5828A83516CF9EA658330E703EADF
:100420008007C3E99582EA9583A2E795E0FA22D096
:1004300083D082C0E0C002516CC082C08322D083CE
:10044000D0825164D002D0E0C082C083225164A91E
:10045000811919870219E722912F7155913E7197E1
:10046000080822C0E0C002416C4A24FFD002D0E05C
:1004700050047147816371098163913E913E5185BA
:10048000516471F49169048E516C71478163912FAD
:1004900071098163C2AF75817F780075A800021170
:1004A000C43099FDC299F599416C3098FDC29851BC
:1004B00064E5997A00225164A29895E07A0022516D
:1004C000A451A49110916904CB519C416C51A45149
:1004D000A49112916904D9519C416C5164E820E7C0
:1004E00004E414FA227002FA22F4C3137A002251AF
:1004F00064713A7114913E7114816318A60218F662
:10050000D083D082E5828583020470010A18A60296
:1005100018F6E4FA9351A451A47114C0E0C002E6A5
:10052000088602082291AA91AA517E6114B1258100
:100530006302630525052D0263518A000791A1918D
:10054000AA516454FC5302FF9169055074007A006B
:1005500051647114518A053171147109916391DBF1
:1005600071EA9169056E518A003F91A19194A13978
:10057000518A000D91A1518A000A81A151645180D4
:10058000519C41F3912FB17C91A1917A0586416CE8
:10059000540F2490D43440D422B19081A15164717D
:1005A00040714071407140B199A1995164517EB13F
:1005B0009DB19D518A002081A1518AFFFF519C511C
:1005C0008A000A71D9B400F7BA00F4516CB1998A63
:1005D000F030F7F9416C8AF030F708714B518A001E
:1005E0002D91A1B1B9A1B3518A0004912F51645149
:1005F0008A8000711B71F471F4518A0001711B51E2
:100600008A0030711491A1713A917A05ED22B1E717
:10061000518A003A91A1A1E7517ED10E516CA1B34C
:10062000D10E518A003A91A1D10E516CA1B351A4BF
:10063000540F53020091690653B17051A4B1AB51EC
:10064000A4540F5302005164713A7114B1B3D5E050
:10065000FB516C912F5164540F53020071F4916956
:100660000668B1705164B1ABB17CB1B1917A0655F5
:10067000416C5164518A00017114519C41C951A4CB
:10068000540F530200916906A3B17051A4B1AB514C
:10069000A4540F5302005164713A7114B1B3D5E000
:1006A000FB516C912F5164540F53020071F4916906
:1006B00006B8B1705164B1ABD172B1B1917A06A5EF
:1006C000416C912F518A003C91A191DBB1B9518AC3
:1006D000003E91A1B1B391DBB40009BA00061581C7
:1006E0001581416C71EA916906EF1581158122919E
:1006F000DB518A0001911091690721518A00FC9118
:10070000DB51855185912F51647102517E913E914B
:100710004D519C912F916351855185917A070751D5
:100720006C5164913E8163518A05D6C1C2518A05DC
:10073000ABC1C2518A05E3C1C2780022CA7908F769
:1007400009B980FBCA7980F709B900FB81941202CC
:100750007211CC518A000822E4F508F509F50AF572
:100760000B22516481A1050822F158518A000191A0
:10077000AA5164518A0021911291690781B1B34154
:100780006AF162F16651A4518A00049112916907DD
:100790009D51A4F153711451A4519C51B8516C5105
:1007A0008A00017114E16F22F153518A0004912FE4
:1007B00051A451F351A451F37130916907C8516AA2
:1007C000518A0000913E416C912F518A00017114B1
:1007D000913E518A00017114917A07B0516A518A91
:1007E000FFFF22F14E7102516451F39169080F51DC
:1007F00064F1A891690805518A000471147102120C
:10080000028AFFFF2212028A000612031480D81205
:10081000028A0000221204FB03204F6B120584029F
:10082000057012026C1204FB02203F1205841205AF
:10083000700204941204DB1203EA120469084101F5
:10084000221207691207E3120469085312046311A4
:10085000150134012212028A00001204AA12026455
:1008600012028A00301204121202A412028A003A02
:100870001204121203F41203221204690881020204
:100880006C12076212028A003012033012029C12AC
:10089000028A000A120393120314015A227F05DF11
:1008A000FED5E0F902026C1202641203F41204692C
:1008B00008B502026C12028A000112033012028A89
:1008C00000FA119D12028A00FA119D12028A00FAA2
:1008D000119D12028A00FA119D01A712028A000CD2
:1008E0002212028A004C22F54C02026C054C2211A5
:1008F000E11202F31202B801EC11E11202F312024A
:10090000F301EC12028A00012212028A0002221272
:10091000028A00042212028A00082212028A004D72
:100920002212028A0086311B0202B812028A008853
:10093000311B0202B812028A0089311B0202B8532D
:10094000D9BF43A41443F1FF75E20375E34075B2C8
:1009500017758E00759812758920758D96D28E2226
:1009600043F10743A40743800743E340226004D2D6
:10097000818002C28112026CD280C28022D2802287
:10098000C28022120264E430830114FA22318312FD
:10099000031B12029C1203400203226005D2820252
:1009A000026CC28202026C12026412028A000112FC
:1009B000031B319B02034012028A0001316D317822
:1009C00031783178317812028A0000216D12028A62
:1009D0000001316D12028A0001316D12028A00009D
:1009E000216D12028A0001316D12028A0001316DFF
:1009F00012028A0000316D12028A0000216D12027B
:100A00008A0001316D12028A0000316D12028A00E3
:100A100000216D31E212028A000F12042F31A7313A
:100A20007812047A0A1D31A712026C21CD12028AB3
:100A30001004511312028A000031A712026C31FE19
:100A400012028A000012028A001012042F12028A77
:100A50008000318D317812047A0A4D12028A00002A
:100A600012028A000F12042F12028A8000318D3187
:100A70007812047A0A6812028A8000318D21CD1220
:100A8000028A0FFF411312028A1FFF411312028ACA
:100A90002FFF411312028A4FFF411331B7518D418D
:100AA0002D12028A000031A712026C31FE12028A56
:100AB000000012028A0001318D21CD51A11203F4F0
:100AC0001204690ABB2231FE12028A000231A731E8
:100AD0007831A712026C21CD51C651BB31FE1202F2
:100AE0008A000012028A0000318D317812028A00D9
:100AF0000712042F12028A0080318D317812047A95
:100B00000AF412028A0080318D21CD51C651BB31C9
:100B1000FE12028A000012028A0000318D31781222
:100B2000028A000F12042F12028A8000318D317860
:100B300012047A0B2712028A8000318D21CD120215
:100B40008A4082511341D812028A4085511341D8FC
:100B500012028A40845113610B12028A408351139E
:100B600051C651BB31FE12028A000012028A0000F7
:100B7000318D317812028A0000318D317812028A6B
:100B80000000318D317812028A000712042F120200
:100B90008A0080318D317812047A0B8E12028A001D
:100BA00080318D21CD12028A4083511351C651BB31
:100BB00031FE12028A000012028A0000318D317863
:100BC00012028AFFFF318D21CD71A51203F41204A8
:100BD000690BC92231FE12028A000812042F31A7C4
:100BE000317812047A0BDE12026C12028A00033191
:100BF000A7317831A712026C21CD31FE12028A0092
:100C00001012042F31A7317812047A0C0412026CEE
:100C100012028A000331A7317831A712026C21CD6C
:100C200012028A4085511361D412028A4082511304
:100C300061D412028A4084511361FA12028A4083FD
:100C4000511361D412028A00029129715912026C67
:100C500012028A0000912971C96159311B1202F3F5
:100C600091208132915B8144518612029C915B12EA
:100C7000028A00101203D912029C1204690C871216
:100C8000028A000112031412042F12057012028A44
:100C9000001012042F91441205B112047A0C95121F
:100CA000047A0C8A2212057012028A001012042F94
:100CB00091441205B112047A0CB02212028A020089
:100CC00012039312035012028A1C00020314120230
:100CD0008A020002039391CE12028A020081688187
:100CE000D691BB12028A002012042F120570120244
:100CF0008A001012042F12057C1205B112047A0C1E
:100D0000F612047A0CEB02026C81E112028A0010E6
:100D10009129913B12028A0000912961C9915BA13E
:100D20000B915B12028A0020912912028A00A59180
:100D30003B12028A0000912961C912028A0000A1B7
:100D40002112028A7DFFA121758F01F5838A82120B
:100D5000026C75B7A575B7F1F0758F0002026C02D1
:100D600002FA758F03F5838A8275B7A575B7F1F01E
:100D7000758F0002026C12042F12047A0D792291F1
:100D8000CE915B91BB12028A020012042F12026400
:100D9000B15F91441203301204690DA812043E128F
:100DA000026A12028A00002212028A00011203144F
:100DB00012047A0D8D12026C12028AFFFF2211DBDF
:100DC00011E712028A004012042F1204AA11EF1236
:100DD000047A0DCA2211DB11E712028A00401204C4
:100DE0002F11F9B10B12047A0DE12212028A0008C8
:100DF00012042FB1BEB1D512028A00001204A11252
:100E0000047A0DF3225186B14112028A0041120484
:100E1000A1518612028A0000915B1204AA12042FCB
:100E2000B1EB12047A0E202212028A004E22120224
:100E30008A0000120264D1281202B812028A00004D
:100E40001205AB91DF020570D1281202F312028A5B
:100E50000001120314120264D1281202B8120264B3
:100E600012028A02001203931205AB91DF02057091
:100E700012028A00402212028A00802243A480C209
:100E80008712028A0028119DD2872243A480C2873C
:100E9000D28722D28653A4BFC287D28753A47F228F
:100EA000C287D287A28650012280F5120264E4FA3A
:100EB0007F08C287D287A28613DFF72243A440139C
:100EC0009286C287D287139286C287D28702026C2B
:100ED0007F08139286C287D287DFF702026CC2872F
:100EE000D28722D28653A4BF22D18B12028A00035A
:100EF000D1BCD1D0C193D18B12028A0002D1BCD116
:100F0000E3D1ABC193D18B12028A0000D1BC120293
:100F10008A0000D1BFD1E3D1A0D1ABC193D18B1254
:100F2000028A0001D1BC12028A0000D1BFD1D0D107
:100F3000E3D1A0C19312028A0000D1E912028A0013
:100F400005119DE10512028A00022212028A00B4F4
:100F500022D1F612028A000212031B1204690F62E8
:100F6000E15122D1F612028A000112031B12046918
:100F70000F7322E16312028A002E0204A1D17C12B7
:100F8000028A0005119DF145D1E912028A0002F1A1
:100F90001D12028A0001F11D12028A002801A7AF6A
:100FA000027A00120264EF2212028A000622120262
:100FB0008A00072212028A00082212028A000322F3
:100FC00012028A003F0204A1F163E105F11DE15123
:100FD000F17DF14BD1E9F1A8F1CCF1C812028A0000
:100FE0000D1203301204690FEBE1C0F19FF1CCF157
:100FF000CC12028A0000F1CCF1C812028A000D1254
:101000000330120469100A020FC012028A01001292
:10101000042F12044D12028A000F12031B1203F454
:10102000120469102D12028A000A1204A1120FC8BC
:101030001205B112047A101222120E281202F312B3
:10104000028A0001120314120264120E281202B85E
:1010500012028A01001203931202641205AB020FFE
:10106000D012028A0000120E281202B812028A0060
:10107000001205AB12028A0000020FD0120F7D127F
:101080000F4B120EE9120FBA120FCC120FC8120238
:101090008A000D120330120469109E020FC0120262
:1010A0008A00DE120FCC12028A00AD120FCC12029F
:1010B0008A00A5120FCC020F63120F4B120EE91219
:1010C0000FAE120FCC120FC812028A000D1203309D
:1010D00012046910D8020FC0120F9F120FCC120F0A
:1010E000CC12028A0040120FCC120FC812028A00E2
:1010F0000D12033012046910FC020FC01208DB123B
:1011000008E712028A004012042F1208F9120FCCCD
:1011100012047A110A020F6312028A000812042FC5
:10112000120DBE12026411B912028A004012031499
:1011300012028A00001204A112047A112022117CEA
:1011400012028A00411204A112028A00001204AAAB
:1011500012042F311812047A115302026C12096022
:101160001209350209B7B28222316612028A000AD8
:10117000120D76216912028A000A12089D31661248
:10118000028A000A12089D31662175315D120F0531
:1011900012026C12028A006412089D218D22315DB8
:1011A000120EF612026C12028A006412089D21A02F
:1011B00022315D120F3512026C12028A006412088D
:1011C0009D21B32212093F315D0208340A43326483
:1011D000113E07433265107C0643326410610643BA
:1011E000326E1039046E65780E480464756D0E2EEB
:1011F000046A74610E0507636F6D0D7F0263400022
:101200000D5F026321000D48096572610D4106659D
:1012100072610D3A026C73000CE1027273000CD61D
:101220000464756D0C68077375730A9405726573B1
:101230000A8D0468616C0A860372756E0A7F026902
:101240002100099B026F40000983022D6B00098079
:10125000022B6B00097D01730000096D0532346DAE
:1012600009350531316D092B04326D680921036D93
:101270006F6403E1012F000003E5012D000003303E
:10128000012A00000393012B00000314047377610B
:10129000029C0464726F026C036475700264012E18
:1012A000000005D6022E7300072701230000085511
:1012B000000000000000000000000000000000002E
:1012C000000000000000000000000000000000001E
:1012D000000000000000000000000000000000000E
:1012E00000000000000000000000000000000000FE
:1012F00000000000000000000000000000000000EE
:1013000000000000000000000000000000000000DD
:1013100000000000000000000000000000000000CD
:1013200000000000000000000000000000000000BD
:1013300000000000000000000000000000000000AD
:10134000000000000000000000000000000000009D
:10135000000000000000000000000000000000008D
:10136000000000000000000000000000000000007D
:10137000000000000000000000000000000000006D
:10138000000000000000000000000000000000005D
:10139000000000000000000000000000000000004D
:1013A000000000000000000000000000000000003D
:1013B000000000000000000000000000000000002D
:1013C000000000000000000000000000000000001D
:1013D000000000000000000000000000000000000D
:1013E00000000000000000000000000000000000FD
:1013F00000000000000000000000000000000000ED
:00000001FF
