:100000000200E9020203000000000002020B0000EF
:10001000000000020213000000000002021B0000AA
:10002000000000020223000000000002022B00007A
:10003000000000020233000000000002023B00004A
:10004000000000020243000000000002024B00001A
:10005000000000020253000000000002025B0000EA
:10006000000000020263000000000002026B0000BA
:10007000000000020273000000000002027B00008A
:10008000000000020283000000000002028B00005A
:10009000000000020293000000000002029B00002A
:1000A0000000000202A300000000000202AB0000FA
:1000B00000000051DA0200223099FDC299F5992220
:1000C0003098FDC298E599225389F1438901758CD6
:1000D00000758A00C28DD28C309805C298E59922AD
:1000E000308D04C28C410080EF75FFDE75FFAD7569
:1000F000840F75E10475E340758AC3758400758EBD
:1001000010759852758920758D61759110D28E1178
:10011000C864A5600474404100745A11B811C864E1
:100120006160047440410011C8646D600474404112
:100130000011C8647260047455410074A511B811AF
:10014000C070024100B43F0280044002743EFF755B
:10015000B789758F03900200F005830583DFF9FFEF
:10016000745A11B8758F019002007E0011C0F0A37F
:1001700011C0F0A3DEF6EF11B8DFEF758F0011C0EC
:10018000410000000000000000000000000000002E
:10019000000000000000000000000000000000005F
:1001A000000000000000000000000000000000004F
:1001B000000000000000000000000000000000003F
:1001C000000000000000000000000000000000002F
:1001D000000000000000000000000000000000001F
:1001E000000000000000000000000000000000000F
:1001F00000000000000000000000000000000000FF
:00000001FF
